:020000040800F2
:10000000000002208906000885060008D930000893
:100010008506000885060008850600080000000027
:10002000000000000000000000000000850600083D
:100030008506000800000000850600085D30000805
:100040008506000885060008850600088506000864
:100050008506000885060008850600088506000854
:10006000850600088506000885060008112E000890
:100070001D2E0008F1180008292E0008352E000852
:100080004DED0008F52200088506000885060008E9
:100090008506000885060008850600088506000814
:1000A0008506000885060008850600088506000804
:1000B00021E100082DE1000839E1000829230008AA
:1000C00085060008352300088506000891D9000838
:1000D0009DD9000881EB0008B1EB0008E5EB0008B2
:1000E0008506000885060008000000008506000857
:1000F00085060008850600088506000885060008B4
:10010000850600088506000845E10008A9D9000811
:1001100019EC00084DEC0008BD1B0008850600081E
:10012000A51B0008B11B0008CDD9000801DA0008A2
:1001300081ED000885060008850600088506000890
:1001400000000000000000000000000000000000AF
:1001500085060008850600088506000881EC000871
:1001600041230008850600086D3000089130000822
:1001700085060008B53000088506000885060008D9
:100180008506000885060008B5EC0008E5EC0008C7
:10019000B5D90008C1D90008850600088506000801
:1001A0008506000885060008850600088506000803
:1001B000312B000885060008850600088506000822
:1001C0008506000885060008111400081D140008A3
:1001D0008506000829140008850600088506000821
:1001E00085060008850600088506000885060008C3
:1001F00085060008850600088506000885060008B3
:1002000085060008850600088506000885060008A2
:100210008506000885060008850600088506000892
:100220008506000885060008850600080000000015
:100230008506000885060008000000008506000805
:100240008506000885060008850600088506000862
:100250008506000885060008850600088506000852
:100260008506000885060008850600088506000842
:10027000850600088506000819ED0008000000004A
:1002800085060008850600088506000800000000B5
:080290000000000085060008D3
:1002A00010B5054C237833B9044B13B10448AFF3B0
:1002B00000800123237010BD080600240000000008
:1002C000B02E010808B5034B1BB103490348AFF337
:1002D000008008BD000000000C060024B02E0108BC
:1002E00001F0FF01102A2BDB10F0070F08D010F8E7
:1002F000013B013A8B422DD010F0070F42B3F6D1EB
:10030000F0B441EA012141EA014122F007047FF003
:1003100000070023F0E80256083C85EA010586EA5A
:10032000010685FA47F5A3FA87F586FA47F6A5FA96
:1003300087F68EB9EED1F0BC01F0FF0102F00702A2
:1003400032B110F8013B013A83EA010313B1F8D14D
:100350000020704701387047002D06BF354603382E
:10036000073815F0010F07D1013015F4807F02BF67
:10037000013015F4C03F0130F0BC0138704700BFB8
:1003800053B94AB9002908BF00281CBF4FF0FF31FC
:100390004FF0FF3000F074B9ADF1080C6DE904CEF8
:1003A00000F006F8DDF804E0DDE9022304B0704750
:1003B0002DE9F047089D04468E46002B4DD18A4218
:1003C000944669D9B2FA82F252B101FA02F3C2F14B
:1003D000200120FA01F10CFA02FC41EA030E9440DC
:1003E0004FEA1C48210CBEFBF8F61FFA8CF708FBFD
:1003F00016E341EA034306FB07F199420AD91CEBD5
:10040000030306F1FF3080F01F81994240F21C8106
:10041000023E63445B1AA4B2B3FBF8F008FB10334E
:1004200044EA034400FB07F7A7420AD91CEB040483
:1004300000F1FF3380F00A81A74240F20781644453
:10044000023840EA0640E41B00261DB1D4400023D8
:10045000C5E900433146BDE8F0878B4209D9002D3C
:1004600000F0EF800026C5E9000130463146BDE8C6
:10047000F087B3FA83F6002E4AD18B4202D3824230
:1004800000F2F980841A61EB030301209E46002DDF
:10049000E0D0C5E9004EDDE702B9FFDEB2FA82F234
:1004A000002A40F09280A1EB0C014FEA1C471FFA92
:1004B0008CFE0126200CB1FBF7F307FB131140EA79
:1004C00001410EFB03F0884208D91CEB010103F146
:1004D000FF3802D2884200F2CB804346091AA4B208
:1004E000B1FBF7F007FB101144EA01440EFB00FEDC
:1004F000A64508D91CEB040400F1FF3102D2A64541
:1005000000F2BB800846A4EB0E0440EA03409CE7DF
:10051000C6F12007B34022FA07FC4CEA030C20FA8C
:1005200007F401FA06F31C43F9404FEA1C4900FAAC
:1005300006F3B1FBF9F8200C1FFA8CFE09FB181129
:1005400040EA014108FB0EF0884202FA06F20BD99C
:100550001CEB010108F1FF3A80F08880884240F2EC
:100560008580A8F102086144091AA4B2B1FBF9F030
:1005700009FB101144EA014100FB0EFE8E4508D92B
:100580001CEB010100F1FF346CD28E456AD90238B0
:10059000614440EA0840A0FB0294A1EB0E01A14295
:1005A000C846A64656D353D05DB1B3EB080261EB03
:1005B0000E0101FA07F722FA06F3F1401F43C5E9DD
:1005C000007100263146BDE8F087C2F12003D84013
:1005D0000CFA02FC21FA03F3914001434FEA1C4755
:1005E0001FFA8CFEB3FBF7F007FB10360B0C43EA47
:1005F000064300FB0EF69E4204FA02F408D91CEBF7
:10060000030300F1FF382FD29E422DD902386344F4
:100610009B1B89B2B3FBF7F607FB163341EA034194
:1006200006FB0EF38B4208D91CEB010106F1FF38E3
:1006300016D28B4214D9023E6144C91A46EA0046DA
:1006400038E72E46284605E70646E3E61846F8E66C
:100650004B45A9D2B9EB020864EB0C0E0138A3E7B5
:100660004646EAE7204694E74046D1E7D0467BE796
:10067000023B614432E7304609E76444023842E70E
:10068000704700BFFEE700BF0B480C4A904203D002
:10069000121A0B4911F026F80A480B4A904203D06F
:1006A000121A002111F02CF802F040FF10F0EEFFBA
:1006B00000F00EF8FEE700BF00000024080600244A
:1006C000E82E0108080600245C6B0024704700BF78
:1006D00008B5214800F0AAF8012000F0D1FD1F481C
:1006E00000F0C0FD1C4800F0DFF900211A4800F0BE
:1006F000E7F9B7EEC08A184800F0D6F9002116488D
:1007000000F0DEF9B7EEC05AF1EE044A02211248B9
:100710009FED0F7B28EE076B25EE077BBDEEC66BCA
:10072000FDEEC77B16EE103A17EE904A9C420AD0B7
:1007300020EE240AB0EE458B00F0C8F922460121D4
:10074000074800F08FFD0A2002F036FDD3E700BF16
:100750000000000000408F4024060024AC2B01085C
:10076000BC2B010804480023044A05490362836244
:10077000C0E9033310F06EBF2406002400000024FB
:10078000CD06000800294ED0274BF0B5D0E9002453
:10079000481E03F10C0E951C03F1100C4E00AC42E8
:1007A00018BF052802EB41058CBF012000206245DF
:1007B00038BFAE452CBF01270027384227D026443A
:1007C000644538BFB64522D39D890026D8894FEAB3
:1007D000510E65F30F06A44602EB8E0E65F31F461D
:1007E000002560F30F0560F31F45104640F8046BC9
:1007F00070454CF8045BF9D121F00100C90705D51B
:10080000998922F81010DB8924F81030F0BD023AE3
:10081000023C023D998922F8021FAA42D98924F894
:10082000021FF7D1F0BD7047F40700242DE9F04115
:1008300040F201138E4A012506462DED028BD8B0F9
:10084000C0F8CC21ADF81430002304958DF8163093
:1008500002F022FE002840F0FA80304604A902F09F
:1008600077FD06F1080000F089FA82490DF194083D
:10087000814B06F10C00814ACDE925130123414645
:100880002792ADF8A03001F0CFFF0322012300240E
:100890001AA902A806F110051A9414AF0294CDE922
:1008A0001E2300220123CDE9202301220023CDE9CC
:1008B0002223734B1B9303F1007303F540731C93C6
:1008C0004FF44173ADF8743002F0BAFA01230AA96B
:1008D00003A80D940A930C93102303948DF83830D9
:1008E000684B0B9301F032FD039906F1200000F0F4
:1008F00043F94FF07E533021029A0893284609931A
:100900000323CDE9061306A900F04AFB284600F0B0
:1009100083FB2846B0EE408A00F07AFBD0ED007AE7
:10092000BC46DFF880E14546F8EE677ABEE80F0086
:1009300088EE277AACE80F009EE803008CE80300FD
:1009400086ED727A37F8141001342846113500F01C
:1009500071FD0C2CF6D106F1140722460423414602
:10096000384606F1300500249FED478A00F070FDFF
:1009700009E000F067FF96ED720A0146284601344F
:1009800000F092FB2035072CE1B23846F1D9E1B2F4
:10099000013400F057FF00230146F0EE480A2846D4
:1009A0001A4696ED720A00F04DFB0C2CEAD1374B3B
:1009B000012430461B88F48520F82C3F01F06AFAA8
:1009C0002246334906F5D87000F0C8FB224631496B
:1009D00006F2B71000F0C2FB2F4B06F5DF70A6F849
:1009E000C0411B88A6F8BE3101F054FA2B4B06F526
:1009F000E170A6F8C4411B88A6F8C23101F04AFA9A
:100A00000223D6F8CC010FA91093002310301393C2
:100A10004BF68033CDE911440F9301F067F9384666
:100A200000F0FAFED6F8CC41237D04F11005DBB9C5
:100A300028461B4D2368D4E90112009501F0D4F932
:100A40000123237558B0BDEC028BBDE8F08104464C
:100A500004A930468DF8165002F07AFC072C7FF47A
:100A600004AF0DF1940810E7284601F0F3F9DFE731
:100A7000F40700240508050905070506050A06060A
:100A800004020404010A010B6F12033BDC2B010872
:100A9000D82B0108D42B0108D02B0108CC2B01083E
:100AA00085070008602B010838B500F1300400F517
:100AB000D8752046203400F02DFBAC42F9D138BD6A
:100AC00000EB411191ED0F0A704700BF0129D0F8EA
:100AD000CC211CD931F002010DD19FED1B7ADFED45
:100AE0001B7A20EE070AB4EEE70AF1EE10FA03DDF6
:100AF00040F6FF71D1817047B5EEC00AF1EE10FAF1
:100B0000F8D4BCEEC00A10EE103A99B2F2E7DFED6D
:100B10000E7A9FED0E7A60EE277AF4EEC77AF1EE48
:100B200010FA0ADCF5EEC07AF1EE10FA09D4FCEE08
:100B3000E77A17EE903A9BB201E040F6FF7393819B
:100B4000C8E70023FBE700BF00C04C4400F07F452E
:100B500007490022074B01F1600010B430245960AE
:100B60001A611C601A755DF8044BC3E902027047F4
:100B700000000030F4070024F0B58C2387B001603A
:100B8000002203710124FA26194605AB8DF81420C2
:100B900002964022009323460194054601F06CFC26
:100BA000002840F09B809DF814300DF1170740227B
:100BB000284603F07F030097CDE901468DF81430F5
:100BC0008DF817302346297901F07CFC002840F08D
:100BD0008580042002F0F0FA05AB402228460093FD
:100BE0002346CDE90146297901F046FC002875D15C
:100BF0009DF8143040220097284603F0BF03CDE94A
:100C000001468DF814308DF817302346297901F00C
:100C100059FC002862D1042002F0CEFA0DF1150330
:100C20004322284600932346CDE90146297901F065
:100C300023FC002852D10DF11603482228460093C8
:100C40002346CDE90146297901F016FC002845D15B
:100C50009DF8153043220097284643F001038DF894
:100C600015308DF817309DF8163043F00103CDE9AB
:100C700001468DF816302346297901F023FC68BB24
:100C80009DF816304822009728468DF817302346E5
:100C9000CDE90146297901F015FCF8B905AB4022F0
:100CA000284600932346CDE90146297901F0E4FB6B
:100CB000A0B99DF8142023460194284602F0CF04E1
:100CC00002960097402229798DF814408DF817403C
:100CD00001F0F8FB003818BF012000E0012007B048
:100CE000F0BD00BFF0B5102387B0234C01220025D2
:100CF0000126002702A920460195CDE902234FF4E1
:100D00008052CDE904670AF051F8642003F002FA3A
:100D100002A94FF480522046CDE90467022610272D
:100D2000CDE902670AF042F80322102302A9204607
:100D3000CDE9022300230422CDE904234FF480529D
:100D40000AF034F840F23223042202A9019310235E
:100D50002046CDE90223019A012305924FF48052E7
:100D600004930AF023F840F6060120460AF03EF804
:100D7000284607B0F0BD00BF140800241C4B002219
:100D80001C494FF0400C30B5054689B0022059602F
:100D900007219A601A620124DA620A224FF4006E77
:100DA000DC6006922022CDE9000104200821CDE973
:100DB000020103201021CDE9040108206946C3E99E
:100DC00004024FF4C072181DC3E906C24FF48052EA
:100DD000C3E909E209F0C0FF38B92846FFF782FFEE
:100DE000003818BF012009B030BD204609B030BD21
:100DF0001008002440410052614A0021D0B5136818
:100E00008EB00A91002B40F0B9805E4B01214FF665
:100E100083700C2411600221D3F8D420002603270C
:100E200042F48052C3F8D420D3F8D42002F4805284
:100E30000092009AD3F8E02042F01002C3F8E020BC
:100E4000D3F8E02002F010020192019AD3F8E020DA
:100E500042F04002C3F8E020D3F8E02002F0400264
:100E60000292029AD3F8E02042F00802C3F8E02090
:100E7000D3F8E02002F008020392039AD3F8E020AE
:100E800042F48072C3F8E020D3F8E02002F48072CC
:100E90000492049AD3F8E02042F08002C3F8E020E4
:100EA000D3F8E02002F080020592059AD3F8E02002
:100EB00042F02002C3F8E020D3F8E02002F0200244
:100EC0000692069AD3F8E02042F00402C3F8E0202C
:100ED000D3F8E0300C9403F0040307930323079A3C
:100EE0000B93CDE9080108A9274805F07FFA48F2DD
:100EF0003712022308A925480C94CDE90823CDE92F
:100F00000A6705F073FA4CF20372022308A920481D
:100F10000C94CDE90823CDE90A6705F067FA40F2A1
:100F2000FF62022308A91B480C94CDE90823CDE9F0
:100F30000A6705F05BFA4FF60C72022308A91648FF
:100F40000C94CDE90823CDE90A6705F04FFA4FF676
:100F50003F02022308A911480C94CDE90823CDE9EA
:100F60000A6705F043FA2022022308A90A480C94D4
:100F7000CDE90A67CDE9082305F038FA0EB0D0BDF7
:100F80000C080024004402580010025800180258AF
:100F9000000C025800200258001C0258001402588D
:100FA00030B5184C154685B0046004F1080EEC46C7
:100FB0000FC98EE80F00D4ED047AF5EEC07A8CE804
:100FC0000F00F1EE10FA1ADDB7EE006A94ED057A23
:100FD00027EE277AC6EE276A84ED0D7AC4ED0C6AF7
:100FE0006DB1204640F8185F02F022F80649036907
:100FF0000020064A2162A262E36005B030BD0120F4
:1010000005B030BD48080024C0200030C0000030CA
:1010100000680830704700BF0068183002F00AB856
:1010200010B4074B4FF07E51302400220320196189
:101030009C60D8605DF8044B5961C3E90622704793
:1010400048080024F6EE007A9FED166A20EE207A1A
:101050000160F7EE006A80ED036A80ED020A27EE78
:10106000277AC6EE877AF4EEE67AF1EE10FA11DD11
:10107000F0EE667A4FF07E514FF0000C02760022BF
:10108000C0ED017AC0F814C0016143768276C0EDEC
:10109000070A7047F4EEC67AF1EE10FAEAD5F0EEE0
:1010A000467AE7E700000000DFED187AB6EE007A36
:1010B000F7EE006A9FED166A60EE277A016080ED18
:1010C000036A80ED020A67EE877A86EEA77AB4EEAD
:1010D000E67AF1EE10FA10DDB0EE667A4FF0804C51
:1010E0004FF07C514FF48072012380ED017AC0F8FB
:1010F00010C04161028383767047B4EEC67AF1EE88
:1011000010FAEBD5B0EE467AE8E700BF6F12033B6A
:10111000000000000268037E128807EE902AFBEEB2
:10112000C87A1BB1B7EE007A77EE677AD0ED056A20
:1011300090ED047A77EEE67A437E67EE877A0BB11C
:10114000F1EE677A90ED030A90ED017A77EEC07ABE
:10115000A7EE270A80ED030A704700BF09884FF009
:10116000000C8271C0F802C0018000F093BE00BF85
:10117000704700BFF8B5134F3C687F2C07D9802318
:10118000114A42F224411C463B60A2F87E100F4DEA
:101190002B68012B0AD90C4E0D4D224631462846AC
:1011A00000F02CF90028F8D13860F8BD2246064935
:1011B000074800F023F90028F7D12B683860013385
:1011C0002B60F8BD840800248808002480080024CF
:1011D0000809002430B4154C2168F1B14B1E144DA0
:1011E000E81810F801298C4619460A2A01D00D2A60
:1011F00002D14BB1013BF4E70CF102037F2B10D974
:101200008023236030BC70470122022323600D201D
:101210000A236854AB5430BC704701220223044DAA
:10122000F4E70CF101026146F0E700BF84080024F6
:101230008808002410B5094C02460B46084821686E
:101240000844C1F1800110F0C3FB236818442060FA
:10125000FFF7C0FFFFF78EFF10BD00BF840800241A
:10126000880800240FB400B583B004A951F8040B1A
:101270000191FFF7DFFF03B05DF804EB04B07047A6
:1012800010B5044600210A4800F032F8002C094B42
:1012900014BF0222002208481A60FFF7E3FF074844
:1012A000FFF7E0FF0A20BDE8104001F085BF00BF56
:1012B0000809002480080024E02B0108F02B010815
:1012C000064A0749074808B510F0C4F9034A04491B
:1012D0000548BDE8084010F0BDB900BF000000247B
:1012E00071110008080900240C090024704700BF90
:1012F000012910B506D0022915D051B1BDE8104022
:1013000007F010B80A46344834490BF085FAE8B1C2
:10131000FEE7334B0A46334C334934481C600BF02C
:101320007BFA68B1FEE701222C492B480BF074FAD6
:1013300000B1FEE72E4928480BF090FAC0B1FEE755
:101340002B492A480BF08AFA60B1FEE72849224867
:101350000BF084FA00B1FEE726491F480BF00CFAA7
:1013600008B3FEE7244921480BF006FAA8B1FEE7CE
:10137000204919480BF000FA00B1FEE716480BF0BF
:1013800083FA024640B9164B164C174917481C60A1
:101390000BF042FA68B1FEE7FEE714480BF074FA6E
:1013A0000028ABD0FEE70C480BF06EFA0028A5D061
:1013B000FEE70F490D480BF051FA00B1FEE70E4968
:1013C0000A480BF0D9F900B1FEE708480BF05CFAC7
:1013D000002893D0FEE700BFAC0B0024A00000243F
:1013E000480E0024ED120008840000241009002497
:1013F000080100246400002454000024084691B22F
:1014000008B502F083F9003818BF012008BD00BFFD
:10141000014806F065BA00BF983A0024014806F07A
:101420005FBA00BF983A0024014806F059BA00BFDD
:10143000983A002482B04FF0000C0323ADF804105A
:10144000BDF8042080F810C00280438002B07047CD
:101450002DE9F04FBE4E00258FB0BE4C037006F153
:1014600040034260074601928846202229463046C2
:10147000C4F85831C4F85461CDE90355CDE9055598
:10148000CDE90755CDE90955CDE90B5510F038F9EF
:101490002022294604F59970C4F82151C4F8255139
:1014A000C4F82951C4F82D5110F02AF9019B84F891
:1014B000385284F820317A68002A5FD02B464146A2
:1014C000B64604F5907599464FF0010A03EB0310F8
:1014D000D1F800B0D1F804800133D1F808C0221847
:1014E000CE6844F800B0C2F80480C2F808C0D660E4
:1014F000087C2EF8029B10740A7C05F8012F002A44
:1015000069D07A68113184F838A29A42DED84FF453
:10151000802291489DF8043008214FF000084FF0D8
:101520000009C4F874310023C4E957020122C4F849
:10153000643184F87031C4E95A2194F83812C4E94E
:10154000608981B3C4F88821002284F8713184F85D
:1015500078313B78C4E96322A3B301220020012142
:10156000013B84F89421C4E96801082B2CD8DFE8FA
:1015700003F0ABB0B5BABFC4C9CFD6009DF80430F4
:101580000121C4F86421C4F874314FF4802384F835
:101590007021714AC4E9572308230022C4E95A1371
:1015A0000023C4E960230123002284F87131002361
:1015B00084F878310323C4F888313B78C4E9632286
:1015C000002BCAD184F89431644803F0DBF9034658
:1015D00038B1FFBEFEE77A6811319A423FF676AF26
:1015E00095E703A95D48039303F02AFB054600280D
:1015F00068D1022240F2FF73CDE9082300230422C0
:10160000CDE90A2394F82031002B00F0D5804FF06B
:10161000060921E0022B00F08980012B40F0C480F4
:101620009AF80130012B00F0C180002B4C4B18BF01
:10163000002306A94948CDE9063902F0CFFD00286C
:1016400040F0BF80013594F82031EDB2AB4240F25A
:10165000B380444B53F825902FB207EB071704EBE8
:10166000070A504600F016FC05EB051323441B7CCB
:10167000042B7DDC022B00F3918000F08D80631938
:10168000002283F81021E35D002BC3D19AF80130CA
:10169000062B00F08580072B00F08A80022B00F0DB
:1016A0009680032B00F09580002B00F09680012B94
:1016B00000F09180042B00F09280052B2A4B18BF7C
:1016C0000023B6E7FFBEFEE703224023C4E96623FA
:1016D0007AE707226023C4E9662375E70F22802397
:1016E000C4E9662370E71F22A023C4E966236BE7E1
:1016F0003F22C023C4E9662366E77F22E023C4E9D2
:10170000662361E7FF224FF48073C4E966235BE739
:1017100040F2FF124FF49073C4E9662354E740F29D
:10172000FF324FF4A073C4E966234DE79AF8013005
:10173000042B37D0052B3DD0002B40D0012B42D0BD
:10174000022B42D0032B094B18BF002371E700BFC7
:10175000C0400030500E002400200240AC0F002496
:101760000002B025002C01080000B84F0020903680
:1017700003233E1D04EB05084FF0000B264488F8B8
:10178000103130460BF1010B00F084FB98F810315A
:1017900004365B45F5DC76E70123EAE70223E8E758
:1017A000104B46E7104B44E7002342E70F4B40E75E
:1017B0000F4B3EE70F4B3CE70FB0BDE8F08F0E4BF1
:1017C00037E7FFBEFEE70D4B33E70D4B31E70D4B1F
:1017D0002FE70D4B2DE70D4B2BE70D4B29E70D4B5D
:1017E00027E700BF0800900C1000C0102000F01484
:1017F0008000501D000180210004002A0008302EC6
:10180000001060320040C03A0080F03E00005247B5
:10181000000021430000844B38B5094C40F2FF72B0
:101820004FF0011104F5AE75284603F0B7F994F8AE
:101830002021D4F854112846BDE8384002F022BFD8
:10184000500E0024034B0F29D3F8540198BF00EB2E
:1018500041007047500E0024214B02689A4200D08C
:101860007047204A00232048D2F8D81030B51F4CCA
:1018700041F0200183B0C4F8C001092004F5E075EF
:10188000C4E971034FF48060C2F8D810D2F8D820B0
:101890004FF40061C4E9733094F8380202F020027A
:1018A000C4F8D4114FF40051984201922846C4F86C
:1018B000D811C4E97833019B14BF00234FF480731F
:1018C000C4F8DC3103F0BAFD08B1FFBEFEE704F551
:1018D000AE73C4F8A851C4F8F83103B030BD00BFEE
:1018E000002002400044025840000240500E0024F4
:1018F000014804F029BA00BF1010002402682DE945
:10190000F84F4B4B9A4201D0BDE8F88F494D95F8FE
:101910003832002BF8D095F82031002B77D00024F6
:1019200005F10C0905F5997605F59077A04613E0C9
:1019300003F0010117F811BCA9F1080000F086FBC3
:10194000BBF1010F25D895F82031013409F11109B7
:101950000236A2B293422BD917F8012F002AF4D0F5
:10196000D5F854310021327833F81400D5F85831C5
:1019700003EB041323F81200338801339BB2338046
:101980005FFA83FA3A789A42D2D88A46A6F800805B
:10199000D0E7CAF34001A9F1040000F057FBBBF106
:1019A000020FCAF38001CED0484600F04FFBCAE7D1
:1019B000002395F83802204909229842C5F8C83119
:1019C0004FF48060C5F8C011C5F8C4214FF4006120
:1019D0004FF40052C5F8CC3108BF4FF48073C5F8FE
:1019E000D821C5E9740100221448C5E97732C5F849
:1019F000E42103F023FD08B1FFBEFEE795F82021A6
:101A0000D5F854110E48BDE8F84F02F03BBE0A4924
:101A100009224FF48060C5F8C831C5E970124FF44F
:101A200000614FF40052C5E97330C5E97512DAE779
:101A300000200240500E00244000024010100024FC
:101A4000AC0F0024704700BF4F4B02689A4200D091
:101A500070474E4BD3F8E81030B541F000514C4C74
:101A600085B0D4F84821C3F8E810D3F8E81001F0A5
:101A7000005101910199D3F8E01041F00101C3F840
:101A8000E010D3F8E03003F001030293029B32F040
:101A900002033DD0013A012A6BD9D4F84C31012B15
:101AA0000AD000223620114603F03EF9362005B058
:101AB000BDE8304003F076B9D4F8483133F0020283
:101AC00034D0013B012BECD8442240233149324D24
:101AD000C4F88C1000212846C4F8B010C4E92423AF
:101AE00000224FF48063C4E926234FF400624FF4D0
:101AF0000053C4E928234FF480724FF48033C4E9C3
:101B00002A2303F09BFC80B9E560C4F8C440C8E711
:101B10004FF48062032303A8ADF80C208DF80E303B
:101B200000F0B8F9D4F84821B4E7FEE71B4BA263F4
:101B30004322636140231A4DC4E9062300224FF477
:101B400080632846C4E908234FF400624FF4005331
:101B5000C4E90A234FF480724FF48033C4E90C23A4
:101B600003F06CFC20B9D4F84831A560E464A8E720
:101B7000FEE74FF4A062032303A8ADF80C208DF814
:101B80000E3000F087F988E70074004000440258E6
:101B900090100024280402401C110024100402406C
:101BA000A4100024014804F0CFB800BFA410002402
:101BB000014804F0C9B800BF1C11002410B5054C41
:101BC000204603F06BFA04F58270BDE8104009F07E
:101BD000BBBA00BF90100024164BD3F84821D3F8AD
:101BE0005811022A4FEA510130B583B00CD088B2A7
:101BF000D3F85C21D3F8644102EB400300930CB1AD
:101C00006846A04703B030BDD3F86021002AF9D060
:101C100088B2D3F85C41D3F8645104EB400402EB82
:101C20004002CDE90042002DECD06846A84703B041
:101C300030BD00BF90100024134BD3F84821022A76
:101C400010B582B00CD0D3F85C11D3F864210091A8
:101C500022B1D3F8581168464908904702B010BD28
:101C6000D3F86021002AF9D0D3F85C11D3F864418D
:101C7000CDE90012002CF1D0D3F85811684649087C
:101C8000A04702B010BD00BF90100024094BD3F84C
:101C90004821022A0DD000B5D3E9581283B0019132
:101CA00022B1D3F8581101A84908904703B05DF854
:101CB00004FB7047901000240B4BD3F84821022AF4
:101CC00010D0D3F8581110B5D3E95824C1F34F03FD
:101CD00082B0490802EB430301930CB101A8A0476D
:101CE00002B010BD704700BF9010002430B58C4684
:101CF0003A4C3B4D8DB0046004F5A27EBCE80F0069
:101D0000AEE80F00DCF8003020462560CEF8003049
:101D100003F0D6F80023D4F84C510393C5B1162232
:101D2000012D049217D00022D4F85411D4F8483170
:101D30009142CDE9062218BF0222059233F0020239
:101D400035D0013B012B3CD9002528460DB030BDD4
:101D500002230493E7E7234A0093C4F80C31C4F844
:101D60001431C4F80421C4F81C31CDE9013301F069
:101D700091FBD4F844314BF68032C4F80851002B63
:101D800008BF1346B0FBF3F304F58270C4F81031BA
:101D900009F044F80028D8D120230290694604F5C0
:101DA0008270009309F088FA0028BCD0CDE703A91F
:101DB0000A4803F0A7F978B9D4F84831013B012B60
:101DC000C2D8102203A9054803F09CF9051E18BFCC
:101DD000012528460DB030BD0125B6E7901000243E
:101DE000007400400010004070B504681D4682B0C9
:101DF0001046D4F84C31012B03D0D4F84831022BD3
:101E000024D1D4F85031069A002BC4F85C11C4F8E0
:101E100064212B460CBF08260026C4F860010A4640
:101E2000C4F8585100212046009603F05FF8D4F81A
:101E300060212B4610212046009603F057F804F548
:101E4000827009F08BF8002002B070BD012002B052
:101E500070BD00BF10B50468D4F84C31012B09D116
:101E6000D4F8483133F0020106D0013B012B0BD9E5
:101E7000002010BD012010BD204603F0C3F8D4F8A7
:101E80004831013B012BF3D81021204603F0BAF86A
:101E9000002010BD8378022B30B504468FB037D0B8
:101EA000032B33D0012B31D000230A93E378012B8D
:101EB0002AD0022B28D000230B93002320460C931A
:101EC00002F006F80546204602F00AF82378099049
:101ED000082B13D8DFE803F01F3245586B7E91A41E
:101EE0000500594BD3F8E02042F48072C3F8E0209B
:101EF000D3F8E03003F480730893089B09A92846BF
:101F000004F074FA0FB030BD0B93D6E70A93CDE717
:101F100011230A93CAE74C4B09A92846D3F8E020BD
:101F200042F00102C3F8E020D3F8E03003F00103EF
:101F30000093009B04F05AFA0FB030BD424B09A940
:101F40002846D3F8E02042F00202C3F8E020D3F89C
:101F5000E03003F002030193019B04F047FA0FB055
:101F600030BD394B09A92846D3F8E02042F00402DD
:101F7000C3F8E020D3F8E03003F004030293029B9F
:101F800004F034FA0FB030BD2F4B09A92846D3F81E
:101F9000E02042F00802C3F8E020D3F8E03003F07C
:101FA00008030393039B04F021FA0FB030BD264BC6
:101FB00009A92846D3F8E02042F01002C3F8E02037
:101FC000D3F8E03003F010030493049B04F00EFAFE
:101FD0000FB030BD1C4B09A92846D3F8E02042F0D1
:101FE0002002C3F8E020D3F8E03003F0200305938B
:101FF000059B04F0FBF90FB030BD134B09A928462F
:10200000D3F8E02042F04002C3F8E020D3F8E030FB
:1020100003F040030693069B04F0E8F90FB030BDCF
:10202000094B09A92846D3F8E02042F08002C3F802
:10203000E020D3F8E03003F080030793079B04F01F
:10204000D5F90FB030BD00BF0044025870B5064648
:102050000D4601F03DFF0446304601F041FF2A1EC7
:102060000146204618BF0122BDE8704004F0C6BBFF
:102070000023122270B586B0CDE9022304930368D1
:10208000032B01D804230593061D841D304601F05F
:102090001FFF0546304601F023FF034601A92846ED
:1020A000019304F0A3F9204601F012FF03462046F5
:1020B0001C4601F015FF01A903462046019304F0D8
:1020C00095F906B070BD00BF634A0368934210B52E
:1020D0008CB028D0614A934258D0614A934200F0B4
:1020E0009480604A934201D00CB010BD5E4C5F48B2
:1020F000D4F8E03043F00203C4F8E030D4F8E03024
:1021000003F002030A930A9BFFF7B2FFD4F8F430FE
:1021100043F08003C4F8F430D4F8F43003F08003C3
:102120000B930B9BE0E7504C5148D4F8E03043F060
:102130000203C4F8E030D4F8E03003F00203019366
:10214000019BFFF795FFD4F8E83000221F2043F4ED
:1021500000131146C4F8E830D4F8E83003F4001353
:102160000293029BD4F8D83043F00103C4F8D8306E
:10217000D4F8D83003F001030393039B02F0D4FD9D
:102180001F200CB0BDE8104002F00CBE364C3948A0
:10219000D4F8E03043F08003C4F8E030D4F8E03005
:1021A00003F080030493049BD4F8E03043F002036F
:1021B000C4F8E030D4F8E03003F002030593059B47
:1021C000FFF756FFD4F8E8300022212043F48003C3
:1021D0001146C4F8E830D4F8E83003F480030693DD
:1021E000069BD4F8D83043F00103C4F8D830D4F8B3
:1021F000D83003F001030793079B02F095FD2120DF
:102200000CB0BDE8104002F0CDBD1B48FFF730FF19
:10221000154B00224820D3F8E840114644F400044E
:10222000C3F8E840D3F8E84004F400040894089C9C
:10223000D3F8D84044F00104C3F8D840D3F8D830DC
:1022400003F001030993099B02F06EFD48200CB0D6
:10225000BDE8104002F0A6BD005400400058004008
:10226000005C0040001C0058004402588414002404
:10227000FC110024D4120024AC1300242DE9F043F7
:102280001A4B87B000254FF010099E46EC46184BBC
:10229000FF22E04667461A700EF118060EF1300470
:1022A000CDE90055CDE90255ADF80090BCE80F002E
:1022B000CDE90455AEE80F009CE803000095ADF8A9
:1022C00000908EE80300B8E80F000FC69CE80300FA
:1022D0000095ADF8009086E803000FCF0FC49CE88E
:1022E000030084E8030007B0BDE8F0830400002485
:1022F000F811002410B5EFF3108472B6084B1A7869
:10230000120602D504B962B610BD1B78D822054862
:102310005BB202FB0300143003F016FDF2E700BFCE
:10232000F8110024FC110024014805F0BFB900BFDA
:1023300088120024014805F0B9B900BF60130024D9
:10234000014805F0B3B900BF381400242DE9F0436B
:102350000F68D8243F4D85B007FB04F4032F05EB2D
:102360000403036040DCCB680E46012B3CD84DD003
:102370004FF0D808B646DFF8FC9008FB0758BEE8D7
:102380000F00C446ACE80F00DEF800300DF1100E6F
:10239000CCF80030D8F808C099E80F000EE90F001B
:1023A0000EEB8703BCF1010F53F8103CC8F88C30DA
:1023B00031D0BCF1020F42D0BCF1000F35D0317CDE
:1023C0008C34D823002201202C4403FB07534900FE
:1023D000C3E92602C3F894102046C3E92822C3E9C2
:1023E0002A2204F095FE18B1012005B0BDE8F08363
:1023F0000146204605F066F90028F5D10146204641
:1024000005F08AF9003818BF0120EEE70B7C103B7D
:10241000672BADD9E8E701F03BF80F4B98420CBFB2
:102420000E4B0F4BC8F89030C9E701F031F80A4B5A
:1024300098420CBF0B4B0C4BC8F89030BFE701F033
:1024400027F8054B98420CBF084B094BC8F8903051
:10245000B5E700BFFC110024000E27072D0FB03098
:102460003211D0205F4390608A62E030200BA010D0
:102470001A098010782B01082DE9F041046884B016
:102480001E46E368BDF82C80C3B90D4617468C3450
:10249000204605F013F92028FAD120460C9C33463B
:1024A0003A462946CDE901840A9C009404F0B0FF25
:1024B000003818BF012004B0BDE8F081012004B04D
:1024C000BDE8F0812DE9F041046884B01E46E36860
:1024D000BDF82C80C3B90D4617468C34204605F054
:1024E000EDF82028FAD120460C9C33463A4629467E
:1024F000CDE901840A9C009404F060FE003818BF06
:10250000012004B0BDE8F081012004B0BDE8F081F5
:10251000044B10221A7483F8E82083F8C02183F852
:1025200098227047FC11002430B5002395B04FF479
:102530008071062204460B9306921393CDE90C1387
:10254000CDE90E33CDE9113300F0A6FF07282BD0DB
:1025500004F1100541F2883206A9284606F02EF84B
:1025600028B10123184684F85C3015B030BD022232
:10257000022306A92846CDE9002310220123CDE934
:10258000022300224FF48003CDE9042305224FF0FB
:10259000807306926A460F9341F2883306F07AF907
:1025A0000028DED115B030BD0323012084F85C3053
:1025B00015B030BD0000000070B50023A4B04FF08E
:1025C00080724FF480750446ADF806300D93CDE966
:1025D00010320122CDE90E53CDE91223CDE9143397
:1025E000002943D0F02300F1100508AEADF8063005
:1025F000C02341F2883231462846089305F0DEFFB9
:1026000028B10123184684F85C3024B070BD41F233
:1026100088320DF10601284606F03AF803460028F4
:10262000EFD105224FF480711E93284616924FF089
:1026300080721B9321931F9202AA9FED1F7BCDE90D
:102640001C13CDE922338DED027B9FED1D7B41F202
:10265000883316A98DED047B9FED1B7B8DED067BEA
:1026600006F018F90028CCD124B070BD00F1100597
:1026700008AE612341F2883231462846089305F0BE
:102680009DFF0028BDD141F288320DF10601284698
:1026900006F07CF80028B4D1BDF80630204623F0BF
:1026A000780343F04003ADF80630FFF73DFF002804
:1026B0009ED0A6E7AFF300800000000001000000FC
:1026C00010000000010000000000000000004000B9
:1026D0002DE9F04F00234FF4807501264FF08078EC
:1026E00004462DED028BABB08DF807301393219388
:1026F000299314950E96CDF85C80CDE91533CDE97C
:102700001863CDE91A33CDE92253CDE92433CDE95D
:10271000273306231C9300F0BFFE072808D004F1DE
:10272000100741F288321CA9384605F047FF40B136
:102730000123184684F85C302BB0BDEC028BBDE859
:10274000F08F4FF0020A4FF0020B4FF0050941F2F3
:10275000883308AA1CA93846CDF89480CDF870902B
:102760009FED2D8BCDE908AB4FF0000A4FF4800BA5
:102770008DED0A8BCDE90CAB06F08CF80028D7D193
:1027800041F2883238460EA905F018FF0028CFD153
:10279000402341F288320DF1070138468DF80730A9
:1027A00005F076FF0028C3D141F288330EA902AAB2
:1027B0003846CDF83890CDF85C809FED197B8DEDD3
:1027C000048BCDE906AB8DED027B06F063F8034682
:1027D0000028ADD1CDF870904FF00109CDF894806C
:1027E0004FF00008219308AA29931CA93846229586
:1027F000CDE92333CDE9273341F288338DED0A8BC0
:10280000CDE90CABCDE9088906F044F8002893D057
:10281000304684F85C608FE7100000000100000083
:1028200040000000400000002DE9F043624CA3B0DE
:102830000D46046000F030FE072800F0A9802868EB
:1028400023466968AA6807C31E46AB8926F8043B7D
:102850003046257B677B05F093FEE0B9574B012D91
:102860004FF00108E061236114BF4FF480134FF46F
:102870000003C4E9058893FAA3F3B3FA83F34FF492
:102880008079013BC4F82490C4E90B0030462362F0
:1028900005F00AFE38B10122134684F85C20184680
:1028A00023B0BDE8F08366230B90139041F2883289
:1028B00006A90693CDE90C90CDE90E00CDE91100F3
:1028C000304605F07BFE0028E5D1992341F288329D
:1028D00006A93046069305F071FE0028DBD10523DA
:1028E0001C9019906A4614934FF08073219014A99C
:1028F0001D9341F288339FED2A7BCDE91A90CDE9F3
:102900001F008DED007B9FED287B30468DED027B17
:102910009FED277B8DED047B05F0BCFF0028BAD12D
:1029200029462046FFF748FE0028B4D12046FFF78D
:10293000CFFE03460028AED1002FB0D11893304609
:102940000027002606AA14A9CDF86890CDE91F3308
:10295000EB2314934FF440631B934FF400531793EE
:102960004FF440431C93A0231693062319934FF072
:10297000805321934FF04073CDE906671D9306F015
:1029800001F8034600288AD0434684F85C8086E735
:1029900001230322184684F85C2023B0BDE8F083AD
:1029A0000000000001000000100000000100000015
:1029B00000000000000040005C15002400500052A0
:1029C0002DE9F04F8FB0414B0024026800AF9A42CE
:1029D0007C63C7E90944C7E90B4403D03C37BD46D3
:1029E000BDE8F08F3A4B40F609213A48EB46D3F860
:1029F000D42007F11C0607F1220A4FF0020942F425
:102A000080424FF00308C3F8D420D3F8D42002F456
:102A10008042BA60BA68D3F8E02042F04002C3F8BE
:102A2000E020D3F8E02002F04002FA60FA68D3F820
:102A3000E02042F02002C3F8E020D3F8E02002F0CA
:102A400020023A613A69D3F8E02042F01002C3F85C
:102A5000E020D3F8E02002F010027A617A69D3F81E
:102A6000E02042F00202C3F8E020D3F8E030F86141
:102A700003F002033984BB61174B7B60BB697B6841
:102A800053F8040F7B6001F023FA7B680546186851
:102A900001F026FA16F8013B786207F12401284676
:102AA000C7F830807B63C7E90A9403F09FFC564562
:102AB000E5D100225C20114602F036F95C2002F0DC
:102AC00071F93C37DD46BD46BDE8F08F005000523D
:102AD000004402580A0A0909B8150024114B02687B
:102AE0009A4200D07047104A70B5D2F8D4300F4CDB
:102AF00023F4804304F11806C2F8D43054F8040FCC
:102B000001F0E6F90546206801F0EAF90146284699
:102B100003F0ACFDB442F1D15C20BDE8704002F09E
:102B20004FB900BF0050005200440258B8150024AD
:102B3000014805F0B3BF00BF6C150024084B1A1DF7
:102B4000981D03F1080110B49C1C9A6603F10A0257
:102B5000C3E91834C3E91B015DF8044B5A67704799
:102B60005C15002438B5036871B9026A00F12805C4
:102B700000F5AC74012A0CBF002140218BBB1D4B1A
:102B80005722C0F858310DE0426A00F1C00500F547
:102B9000E874012A0CBF00214021EBB1164B5A22E8
:102BA000C0F8D03100232046C4E901214FF48052FF
:102BB0004FF48061636262614FF48042C4E9033183
:102BC0004FF48073C4E906234FF40033236202F00C
:102BD00035FC58B1FFBEFEE7084B5822C0F8D03193
:102BE000E0E7074B5922C0F85831DBE7C5E920443C
:102BF000A56338BD1000024070000240280002406A
:102C0000580002402DE9F043821D05468BB0031D9C
:102C100005F10A010830CDE9052305F10C02AB6985
:102C2000CDE907010992002B3DD0EB69B3FA83F897
:102C30004FEA58180123022205AE0AAF4FF00609E9
:102C40000393CDE9012356F8044B2B792278934264
:102C500016D02B68F3B1012B02D1F2B10A230493F1
:102C6000204601F03DF903462046009301F030F97B
:102C7000694603F0BBFBBE42E5D10BB0BDE8F08373
:102C8000697963789942E4D1B8F1000FF3D02B68E9
:102C9000002BE0D1CDF81090E2E76378022B14BF4F
:102CA0000A230823DBE74FF00108C3E7534A036810
:102CB000934230B505468BB055D02032934252D066
:102CC0004F4A934204D02032934201D00BB030BD22
:102CD0004C4C4D48D4F8E03043F00103C4F8E030E8
:102CE000D4F8E03003F001030593059BD4F8E030FD
:102CF00043F00803C4F8E030D4F8E03003F00803F0
:102D00000693069BD4F8E03043F04003C4F8E0306B
:102D1000D4F8E03003F040030793079BD4F8F03079
:102D200043F40003C4F8F030D4F8F03003F40003A7
:102D30000893089BFFF766FFD4F8D830296843F062
:102D400001032F4A3048C4F8D830891AD4F8D83053
:102D500018BF012103F001030993099B0BB0BDE8E3
:102D60003040FFF7FFBE274C2848D4F8E03043F04E
:102D70000103C4F8E030D4F8E03003F0010300931D
:102D8000009BD4F8E03043F01003C4F8E030D4F8EE
:102D9000E03003F010030193019BD4F8E03043F0DE
:102DA0004003C4F8E030D4F8E03003F0400302936D
:102DB000029BD4F8F03043F48003C4F8F030D4F828
:102DC000F03003F480030393039BFFF71BFFD4F859
:102DD000D830296843F00103084A0C48C4F8D830B9
:102DE000891AD4F8D83018BF012103F001030493E5
:102DF000049B0BB0BDE83040FFF7B4BE045801405F
:102E0000045C01400044025830180024D41500240A
:102E1000014802F099BF00BF2C170024014802F0BE
:102E200093BF00BFA4170024014802F08DBF00BF6C
:102E300088190024014802F087BF00BF001A00244F
:102E40002DE9F04F0C684FF41776754F87B004FBEF
:102E500006F6012C07EB060AC0F800A000F3A080DC
:102E60000D468E464FF00008D44669A3D3E90023EF
:102E700069A1D1E90001CDE9022306ABCAF850826D
:102E800003EB8403CDE9040153F810BC53F8083C6C
:102E9000CAE992880193BEE80F00ACE80F00BEE8D3
:102EA0000F00ACE80F00019B9EE80300CAF828B0B1
:102EB000CAF8C0308CE803002B69042B0CD8DFE87B
:102EC00003F0737D879103004FF41773554A03FB9A
:102ED00004739A64C3F8E020AA692B6A002A43D0DD
:102EE000002B4FF4177308BF022203FB047318BFB3
:102EF0000322DA6201221A63EA696B6A002A40D16E
:102F0000191E4FF4177318BF012103FB0473C3E9A3
:102F100031126B69022B05D8434A12F80380434AE9
:102F200052F823904FF4177306F1280042464946A1
:102F300003FB04740023384463646363E365C4F8EB
:102F4000DC30C4F8CC30C4F8F430C4E90F33C4E941
:102F50001533C4E93533C4E93B33022307F040FE9F
:102F6000002849D0FFBEFEE7191E4FF4177318BFA3
:102F7000012103FB0473C3E90B12EA696B6A002A9F
:102F8000BED0002B4FF4177308BF022203FB04735B
:102F900018BF0322C3F8C4200122C3F8C820B8E731
:102FA000012007B0BDE8F08F4FF417734FF4FA52C9
:102FB00003FB04739A64C3F8E0208DE74FF41773A2
:102FC0004FF47A5203FB04739A64C3F8E02083E75A
:102FD0004FF417734FF4FA4203FB04739A64C3F877
:102FE000E02079E74FF417734BF6803203FB04734C
:102FF0009A64C3F8E0206FE706F1C000022342465E
:103000004946384407F0ECFD0028CAD0FFBEFEE771
:1030100004580140045C014024580140245C0140F4
:10302000D415002400770100402C0108442C01082D
:103030000068704703681B69042B05D8044A02EB3B
:10304000830393ED000A70479FED020A704700BFAB
:10305000502C010800803B47704700BF08B501F0C5
:1030600047F8BDE8084001F027BF00BF064808B593
:1030700003680BB103F0C6FB044803681BB1BDE84D
:10308000084004F02DBC08BDA8440024A03E002444
:10309000064808B503680BB103F0B4FB04480368A5
:1030A0001BB1BDE8084004F01BBC08BDA8440024C7
:1030B000A03E0024064808B503680BB103F0A2FB4C
:1030C000044803681BB1BDE8084004F009BC08BD12
:1030D000A8440024A03E0024364BDA6A520062D590
:1030E0009A6A9A6A9A6A9B6A180600D500BE314BA2
:1030F0009B6A990600D500BE2E4B9B6ADA0600D566
:1031000000BE2C4B9B6A1B0700D500BE294B9B6A57
:10311000980700D500BE274B9B6AD90700D500BE93
:10312000244B9B6A1A0400D500BE224B9B6A9B0469
:1031300000D500BE1F4B9B6AD80400D500BE1D4BB6
:103140009B6A190500D500BE1A4B9B6A5A0500D52B
:1031500000BE184B9B6A9B0500D500BE154B9B6AB1
:10316000D80500D500BE134B9B6A990100D500BE5F
:10317000104B9B6ADA0100D500BE0E4B9B6A1B0305
:1031800000D500BE0B4B9B6A580300D500BE094B0F
:103190009B6A990300D500BE064B9B6ADA0306D4EE
:1031A00000BE00BEFEE7DB6A9B07FAD5F8E700BE6B
:1031B000F6E700BF00ED00E000F0ACBF2DE9F04104
:1031C000CEB004464C2200210AA80EF099FA202223
:1031D000002102A80EF094FABC2200211EA80EF0D5
:1031E0008FFA022005F078F82368012B4FF00003D6
:1031F00054D0534A02250193C820D16A514B21F083
:103200000101D162D26A02F0010201929A6942F48C
:1032100040429A619B6903F440430193019B494AF0
:1032200093699B04FCD548490224002201268B6A3D
:1032300004274FF0080823F0030323438B62052380
:1032400016900AA818934FF4803310961794199487
:103250001597CDF86880CDE91B222122CDE91344D2
:10326000CDE90A2305F022FD00B1FEE73F2203234A
:10327000294602A8CDE9022300220823CDE9042330
:1032800040224023CDE9062340234FF48062CDE95C
:10329000082306F039F80346B8B1FEE7294A0425A9
:1032A0000093F0209169264B41F44041916192696D
:1032B00002F440420092DA6A42F00102DA62DB6A0A
:1032C00003F001030093009BA9E720224FF48051F3
:1032D00025934FF440152B9280222D931EA83093F6
:1032E000269135914FF48071249234920C223394BC
:1032F000439140F2271120921022CDF884802A9722
:103300001F96CDE92E34CDE93B334FF48033CDE920
:1033100022463193002446930623CDE93E45279368
:103320004FF48063094C2C931E94CDE9281206F0CB
:1033300047FA00B1FEE704F0F5FF4EB0BDE8F081BA
:103340000004005800480258004402580F130F03AD
:103350002DE9F0410D46044684B0D1E9000184E82E
:10336000030000F095FEAE79002E37D06F460BF0CB
:10337000F5FDFEF783FF0AF0CBFA0BF083FB2B7908
:10338000002B54D16B799BB1BFF34F8FBFF36F8F7D
:103390003C4B0022C3F85022BFF34F8FBFF36F8F17
:1033A0005A6942F400325A61BFF34F8FBFF36F8FF7
:1033B0004FF0FF32002300240025394632480292A4
:1033C0008DF80C30CDE900450AF0C2FE2E480AF017
:1033D00027FF09F0CDFE04B0BDE8F08120466F461E
:1033E000FFF7ECFE012401F015FD4FF040534FF4C0
:1033F000807838460193254BADF80040CDE902387E
:1034000001F026FD19224FF0404338468DF80F4059
:10341000ADF80D808DF801408DF80A608DF8082018
:10342000019301F015FD042001F002FD9FE7154C0A
:103430000023C4F88430BFF34F8FD4F8803043F6B4
:10344000E07EC3F3C906C3F34E334FEA431C0CEAD4
:103450000E00334640EA8372013BC4F860225A1CD6
:10346000F8D1ACF1200C1CF1200FF0D1BFF34F8F3D
:10347000636943F480336361BFF34F8FBFF36F8F92
:1034800080E700BF00ED00E08C1A00240E0001036D
:1034900006F06AB806F084B81C4B9B6803F17842CA
:1034A000B2F5003F25D3B3F5803F20D303F160424E
:1034B000B2F5003F1FD303F15C42B2F5002F1CD3DD
:1034C00003F17042B2F5902F19D303F14842B2F5DF
:1034D000803F16D303F18042B2F1806F13D303F122
:1034E000E043B3F5000F2CBF0820072070470120F0
:1034F0007047002070470220704703207047042067
:103500007047052070470620704700BF00ED00E0BF
:1035100003480023034A044903600EF09BB800BF30
:103520008C1A0024000000245930000810B4204CEC
:103530000022204B83B0D4F888101F4841F470015A
:10354000C4F8881019681D4C41F0010119601A6116
:10355000196808401A4918609A61DA611A629A6219
:10356000DA621A635A639A63DA631A645A641868EF
:1035700020F4802018601A66D3F8DC2042F0604204
:10358000C3F8DC20D3F8DC300193019B2368194099
:10359000B1F1005F03D20B4B0122C3F80821044BA9
:1035A0004FF000629A6003B05DF8044B704700BFB3
:1035B00000ED00E0004402587FEDF6EA0010005CE8
:1035C0000000FFFF00800051704700BF00207047DF
:1035D00070B50446074E0D463046214609F0DEF828
:1035E000304609F0FDF8044B204629461B689847F1
:1035F000002070BD10090024903A002470B50446E4
:10360000074E0D463046214609F0C8F8304609F00D
:10361000E7F8044B204629461B689847002070BDF8
:10362000AC0B0024943A002400220949094808B54B
:1036300009F0AAF80849074809F0B0F8074B1A68DA
:103640000AB1002008BD064A00201A6008BD00BF6C
:10365000902A002410090024901A0024903A002493
:10366000C935000800220949094808B509F08CF855
:103670000849074809F092F8074B1A680AB1002078
:1036800008BD064A00201A6008BD00BF9032002421
:10369000AC0B002490220024943A0024C935000881
:1036A00020280AD0212806D1094B18689A889B79CE
:1036B00008608A808B7100207047054B0868B1F85C
:1036C00004C08A7918600020A3F804C09A7170477A
:1036D0007400002420280AD0212806D1094B18683C
:1036E0009A889B7908608A808B7100207047054B0F
:1036F0000868B1F804C08A7918600020A3F804C0F3
:103700009A7170477C0000240020704710B5094C66
:10371000D4F89032D3F814320BB1012010BD0A4610
:103720000146204609F030F82046BDE8104009F077
:103730003DB800BF100900244B4A036830B59342DE
:103740008BB04FF00004CDE90444CDE90644089461
:1037500004D0464A934249D00BB030BD444D4FF49B
:10376000C0524448D5F8E03043F00103C5F8E030DA
:10377000D5F8E03003F0010300930223009904A977
:10378000CDE904230A23089302F030FE4FF40072BF
:10379000002304A937480694CDE9042302F026FE4D
:1037A000D5F8D8302246214643F000636220C5F8A0
:1037B000D830D5F8D83003F000630193019B01F0B5
:1037C000B3FA622001F0EEFA22462146632001F0AE
:1037D000ABFA632001F0E6FA22462146652001F0AB
:1037E000A3FA652001F0DEFA0BB030BD204D4FF496
:1037F000404204A9D5F8E03043F00203C5F8E030B8
:10380000D5F8E03003F002030293022302981A482D
:10381000CDE904230C23089302F0E8FDD5F8D83055
:10382000224621464A2043F00073C5F8D830D5F827
:10383000D83003F000730393039B01F075FA4A201C
:1038400001F0B0FA224621464B2001F06DFA4B20E0
:1038500001F0A8FA224621464D2001F065FA4D20DC
:1038600001F0A0FA0BB030BD000008400000044099
:1038700000440258000002580004025800F571711B
:10388000D0F8040409F018B8C1EBC10300EB8303BE
:10389000D0F80404D3F8082209F03CB8C1EBC10306
:1038A00000EB8303D0F804049A6C09F071B800BFF0
:1038B000D0F8040409F010B9C16810B5044619B174
:1038C000022900D0FEE70121D4F8040409F0EEF843
:1038D000D4F80404BDE8104009F0C0B810B504469F
:1038E000D0F8040409F0E6F82268D2F8003E43F06C
:1038F0000103C2F8003E236A23B1034A136943F06F
:103900000603136110BD00BF00ED00E0D0F8040411
:1039100009F0DAB8D0F8040409F0EEB8D0F80404DD
:1039200009F0E8B8D0F8040409F0E8B8D0F80404C5
:1039300009F0E6B870B5067804461EB1012E30D005
:10394000002070BD304D0923304AC5F80404C0F88A
:10395000985228462E612E63C5E9002302230222D5
:10396000EB600023C5E9062300220023C5E90823F4
:1039700001220123C5E90A2303F0FAFE00B1FEE7A4
:103980008021284604F088FC31464022284604F075
:1039900059FC80220121284604F054FC2678012E8F
:1039A000CED11B4D09221B4B00216A6002222B60E5
:1039B0000223C5F804442846EB600023C4F898525B
:1039C0002961C5E9062300220023C5E90823C5E9CA
:1039D0000C2301220023C5E90A2303F0C9FE044693
:1039E00000B1FEE74FF40071284604F055FC214673
:1039F0008022284604F026FC4FF4BA72314628464D
:103A000004F020FC9CE700BF983A00240000084026
:103A1000A03E002400000440D0F8980208B503F04E
:103A20003DFF032802D8024B185C08BD022008BDE8
:103A3000742C01089446D0F898021A4608B56346DB
:103A400004F0B2FA032802D8024B185C08BD022029
:103A500008BD00BF742C0108D0F8980208B504F026
:103A6000E1FA032802D8024B185C08BD022008BD09
:103A7000742C0108D0F8980208B504F063FB032801
:103A800002D8024B185C08BD022008BD742C010846
:103A9000D0F8980208B504F099FB032802D8024B2D
:103AA000185C08BD022008BD742C01080A06D0F875
:103AB000983206D4C1EBC10103EB810191F8FE01FC
:103AC000704701F07F01C1EBC10103EB810191F867
:103AD0003E007047D0F8980208B504F04FFA03286A
:103AE00002D8024B185C08BD022008BD742C0108E6
:103AF000D0F8980208B504F0FDFA032802D8024B6A
:103B0000185C08BD022008BD742C0108D0F898028A
:103B100008B504F0BDFA032802D8024B185C08BDB2
:103B2000022008BD742C0108D0F8980204F0D8BA1D
:103B3000122301480B807047D00000241223014853
:103B40000B807047BC000024042301480B807047A1
:103B5000E400002410B5044C0A460448214609F04C
:103B60004FFA204610BD00BFA8420024782C01085F
:103B700010B5044C0A460448214609F041FA204693
:103B800010BD00BFA8420024882C010810B5044CC9
:103B90000A460448214609F033FA204610BD00BF0A
:103BA000A84200249C2C010810B5044C0A46044885
:103BB000214609F025FA204610BD00BFA842002486
:103BC000A82C010810B5044C0A460448214609F007
:103BD00017FA204610BD00BFA8420024B82C0108E7
:103BE000042301480B807047E400002410B5044C06
:103BF0000A460448214609F003FA204610BD00BFDA
:103C0000A8420024782C0108464A4FF01A0CD2F83A
:103C10000008D2F80838A1F800C0C31801D1424802
:103C20007047180FB3F1204FD2F804184FF0000C72
:103C30003D4A2CBF3730303082F803C04FF0000CC3
:103C40009070C3F3036082F805C04FF0000C0928A0
:103C500082F807C04FF0000C8CBF3730303082F84C
:103C600009C04FF0000C1071C3F3035082F80BC071
:103C70004FF0000C092882F80DC08CBF373030306F
:103C80009071C3F3034009288CBF37303030107275
:103C9000C3F3033009288CBF373030309072C3F340
:103CA000032009288CBF373030301073C3F3031062
:103CB00003F00F0309288CBF37303030092B907385
:103CC0004FF0000094BF30333733B1F1204FD07341
:103CD00013744FEA11734FF000002CBF37333033A9
:103CE000507400209374C1F30363D0740020092B37
:103CF00050754FF000008CBF37333033D0751375DB
:103D0000C1F303530848092B8CBF37333033937505
:103D1000C1F30343092B94BF3033373313760023A9
:103D20005376704700E0F11FE8000024464A4FF048
:103D30001A0CD2F80008D2F80838A1F800C0C3184D
:103D400001D142487047180FB3F1204FD2F8041840
:103D50004FF0000C3D4A2CBF3730303082F803C0A2
:103D60004FF0000C9070C3F3036082F805C04FF071
:103D7000000C092882F807C04FF0000C8CBF3730C8
:103D8000303082F809C04FF0000C1071C3F30350BB
:103D900082F80BC04FF0000C092882F80DC08CBFD0
:103DA000373030309071C3F3034009288CBF37306F
:103DB00030301072C3F3033009288CBF37303030F5
:103DC0009072C3F3032009288CBF37303030107352
:103DD000C3F3031003F00F0309288CBF37303030D2
:103DE000092B90734FF0000094BF30333733B1F19B
:103DF000204FD07313744FEA11734FF000002CBFA3
:103E000037333033507400209374C1F30363D0749C
:103E10000020092B50754FF000008CBF3733303332
:103E2000D0751375C1F303530848092B8CBF373382
:103E300030339375C1F30343092B94BF30333733C9
:103E4000137600235376704700E0F11FE80000244A
:103E500010B5044C0A460448214609F0D1F8204622
:103E600010BD00BFA8420024A82C010810B5044CC6
:103E70000A460448214609F0C3F8204610BD00BF99
:103E8000A84200249C2C0108D0F8C00209F02AB9ED
:103E9000D0F8C00209F03EB9D0F8C00209F046B926
:103EA000704700BFD0F8C00209F02CB9D0F8C002AA
:103EB00009F02CB9D0F8D00308B503F063F8032853
:103EC00002D8024B185C08BD022008BDCC2C0108AA
:103ED000024B027853F82200704700BFF02C010813
:103EE000024B427833F81200704700BFD02C010813
:103EF0008CB00A2814D8DFE800F01523313F4D5B61
:103F00006977859306004D4BD3F8E02042F4806238
:103F1000C3F8E020D3F8E03003F480630B930B9BED
:103F20000CB07047454BD3F8E02042F00102C3F8D3
:103F3000E020D3F8E03003F001030193019BEFE7A9
:103F40003E4BD3F8E02042F00202C3F8E020D3F861
:103F5000E03003F002030293029BE1E7374BD3F812
:103F6000E02042F00402C3F8E020D3F8E03003F090
:103F700004030393039BD3E7304BD3F8E02042F0D4
:103F80000802C3F8E020D3F8E03003F008030493FC
:103F9000049BC5E7294BD3F8E02042F01002C3F898
:103FA000E020D3F8E03003F010030593059BB7E75A
:103FB000224BD3F8E02042F02002C3F8E020D3F8EF
:103FC000E03003F020030693069BA9E71B4BD3F8D0
:103FD000E02042F04002C3F8E020D3F8E03003F0E4
:103FE00040030793079B9BE7144BD3F8E02042F074
:103FF0008002C3F8E020D3F8E03003F08003089398
:10400000089B8DE70D4BD3F8E02042F48072C3F893
:10401000E020D3F8E03003F480730993099B7FE735
:10402000064BD3F8E02042F40072C3F8E020D3F846
:10403000E03003F400730A930A9B71E700440258CE
:10404000704700BF0F4B1B780BB90120704710B5AC
:1040500004464FF47A700C4AB0FBF3F31068B0FBDF
:10406000F3F000F0C1FE0F2C00D808B1012010BD04
:10407000002221464FF0FF3000F056FE034B002097
:104080001C6010BD020100244C0000240401002427
:1040900038B50320124D00F035FE124C05F094F8AF
:1040A000114A12499369C3F30323CB5C03F01F0346
:1040B00020FA03F30E202B60926902F00F028A5C53
:1040C00002F01F02D3402360FFF7BCFF10B10124B0
:1040D000204638BD0446FFF7B3FF204638BD00BF79
:1040E0004C0000245000002400440258642C0108B5
:1040F000034A044B11681B780B441360704700BFE0
:104100006C47002402010024014B1868704700BF6F
:104110006C47002438B50446FFF7F6FF0546631CDC
:1041200002D0044B1B781C44FFF7EEFF431BA34255
:10413000FAD338BD02010024014B1868000C704707
:104140000010005C704700BF806B08B5FFF7FAFFF6
:1041500008BD00BF836B5A6D12F0500F5A6D10B539
:104160001DD1196842F400725A650A6812F0080FEE
:10417000CA681BD012F4406F0DD1CA6894040AD4E7
:104180005A6D22F480725A655A6DD10403D45A6D67
:1041900042F001025A651846FDF7B0FB10BDD20689
:1041A0000AD4DB6CBDE81040DB6C18479007E7D001
:1041B0001846FDF7A3FBF1E71846FDF743FC10BDD9
:1041C000806B08B5436D43F040034365836D43F056
:1041D00004038365FDF736FC08BD00BFF0B500227F
:1041E00083B0019290F85020012A00F01C81034610
:1041F00001201A6883F850009468640700F18A80EF
:104200000C68C4F31305002D40F08F80C4F3846460
:10421000A0404D684FF01F0ED6694FEA951C304301
:104220000CF00C0CD06105F01F0002F13005844049
:104230000EFA00FE5CF8050020EA0E0004434CF87C
:104240000540906840076ED4956815F0080547D181
:104250000C68072002F11406B94F4FEAD45CC4F38E
:1042600004540CF0040C00FA04FE886800FA04F40C
:104270005CF8060020EA0E0020434CF8060038687F
:1042800000F07040B0F1805F00F0C580D068D66863
:10429000C70600F1E880C6F382064869760000FA96
:1042A00006F60F69042F00F0C18002F1600408686F
:1042B00054F827C000F0F8400CF0004C40EA0C0025
:1042C000304344F82700487E0E69012854F8260040
:1042D00008BF4FF0004520F00040054344F8265049
:1042E0009068C40714D4CE68086806F01807954C87
:1042F000D2F8C050FC40C0F31307044025EA07057C
:104300002C43C2F8C040904CA64246D0002816DB91
:10431000002003E05A6D42F020025A65002283F823
:10432000502003B0F0BD9068DAE794FAA4F5B5FA2E
:1043300085F5C4F3846405F01F05A84069E7834947
:104340008A4200F0B68001F580718A4200F0B180A7
:104350007F4D804CA968A46801F0E076E44304F046
:104360000104002C00F0B4807B4CA04200F0FC80E3
:104370007A4CA04200F01A81794CA042C8D149027F
:10438000C6D474498A42C3D1AA68002022F0E072E0
:10439000324342F48002AA60C0E7002F6AD090FA4C
:1043A000A0F4B4FA84F4013404F01F04092C00F2E0
:1043B000A48090FAA0F4B4FA84F490FAA0F5B5FAC7
:1043C00085F5013401260135A40605F01F0504F02A
:1043D000F84406FA05F52C4390FAA0F0B0FA80F004
:1043E000304400F01F0000EB400000052043C60DE4
:1043F00002F11405C0F30450072406F0040604FA81
:1044000000F7745924EA07048F6807FA00F0204384
:10441000705108687AE7D6684869C6F38206760064
:1044200000FA06F63DE7022003B0F0BD106E0C68FE
:1044300000F0F840A506B0EB846F30D0506E00F06D
:10444000F840854226D0906E00F0F84085422BD08F
:10445000D06E00F0F84085427FF442AFD06E20F07D
:104460000040D0663CE77608486906F0080600FA86
:1044700006F616E7800E441C04F01F06092E2DD800
:10448000A406012004F0F844B040044306EB4600C3
:104490000005ABE7506E20F000405066D3E7106E89
:1044A00020F000401066C9E7906E20F00040906652
:1044B000CEE7264C2B4D04F58074A96854F8F86CAF
:1044C000A468344301F0E076E44304F0010448E7D3
:1044D0005A6D012042F020025A651FE706EB4600A4
:1044E000A50601241E3805F0F84504FA06F6000575
:1044F000354340F00070284379E790FAA0F5B5FA0B
:1045000085F590FAA0F4B4FA84F40135012601345B
:10451000AD0604F01F0405F0F84506FA04F425433F
:1045200090FAA0F4B4FA84F4344404F01F0404EBC9
:104530004404A4F11E00000540F00070DBE700BF5A
:104540000010005CFFFF0F000000FF47002002404A
:104550000063025800600258000084CB000052C77C
:104560000000B8CF0023024008023FF5D1AE174942
:104570008A427FF4CDAE164AA9681268154821F028
:10458000E07192093143A0FB020241F4000192095B
:10459000A96052000192019A002A3FF4B9AE019A33
:1045A000013A0192019A002AF9D1B1E611F0807026
:1045B0007FF4AEAE05498A427FF4AAAEAA6822F023
:1045C000E072324342F08072AA60A7E600600258AF
:1045D0004C000024632D3E0503689A68D20701D57C
:1045E000002070479968214A114270B5044608D0EE
:1045F000636D012043F010036365A36D0343A3655E
:1046000070BD99681A4A0A4042F001029A60FFF7A9
:104610007BFD2368174A054693421ED002F580723F
:1046200093421AD0144A9268114E0AE09A683240B6
:1046300042F001029A60FFF767FD401B0228D7D8BD
:1046400023681A68D2070FD49A68D107EED5FFF70E
:104650005BFD401B0228F3D9CAE7084A9268D006DE
:10466000E2D0074A9342DFD1002070BD3F000080B6
:10467000C0FFFF7F00200240006302580023024079
:10468000002102402DE9F0413A4D044600680F46F2
:104690001646A84219D0384B984216D0374DAB6811
:1046A0008068420716D494F85020012A12D003F0F3
:1046B0001F080122B8F1090F84F850200DD90023FA
:1046C000012084F85030BDE8F0812D4DAB68806842
:1046D0004207E8D50220BDE8F08140F2212323FA09
:1046E00008F3DB4313EA0205E9D12046FFF774FF24
:1046F000002839D1626D234B2168134043F4807345
:104700006365B8F1000F02D01B4B994203D0636D73
:1047100023F480136365636D13F4805328D0A36D75
:1047200023F00603A365E06C3346174D3A4640314B
:10473000C563164D0564164DC5641C2541F8405CE3
:10474000002584F8505051F83C5C45F0100541F8C4
:104750003C5C01F031F822680E4B91680B4043F04D
:1047600004039360BDE8F08184F85050BDE8F08107
:10477000A365D8E7002002400021024000630258F0
:1047800000230240FEF0FFFF5541000849410008A8
:10479000C1410008C0FFFF7F38B503689A689107E0
:1047A00002D59B68002038BD9A68D20723D59A6845
:1047B000044602F00D02012A08D0636D012043F087
:1047C00010036365A36D0343A36538BD9868032197
:1047D0000A4A024042F002029A601960FFF794FC14
:1047E000054604E0FFF790FC401B0228E5D823684B
:1047F0009B68DB07F6D4002038BD00BFC0FFFF7FF9
:1048000038B5574A04460368934226D002F58072B1
:10481000934222D0534B9B6813F4403F22D004F0C4
:104820008DFE63680546B3F5003F00F08880B3F560
:10483000403F70D0B3F5803F00F08180FFF77CFCF3
:1048400041F2030398422DD8474B9D425DD922681F
:10485000936843F48073936038BD444B9B6813F4B2
:10486000403FDCD14FF4002005F034FF636805467B
:10487000B3F5101F6DD008D8B3F5E01F55D01AD985
:10488000B3F5001FDAD14509D8E7B3F5201F4AD0A8
:10489000B3F5301FD2D1FFF74FFC41F2030398422A
:1048A00033D92D0A324B9D421DD82268936823F4D8
:1048B0004073936038BDB3F5801F06D00AD9B3F5B5
:1048C000A01F02D0B3F5C01FB8D19B0C5B00B5FB95
:1048D000F3F5B3E7B3F5002FF7D023F40022B2F5D8
:1048E000802FF2D0AAE7234B234A2B4493421ED9B0
:1048F000224B234A2B449342226893682BD823F4FB
:10490000407343F40073936038BD2268936823F4C6
:104910008073936038BD8508FFF70EFC41F20303F6
:104920009842BFD890E7C50988E7050986E722685D
:10493000936823F4407343F48073936038BD1B0C79
:10494000B5FBF3F5FFF7F8FB41F203039842A9D852
:104950007AE7850972E743F44073936038BD00BF7E
:104960000020024000630258002D31010023024064
:10497000105E5F00EFA1A0FF0F5E5F00DF4341FF0D
:104980001FBCBE0030B5002383B00193002800F0A7
:10499000D080456D0446002D00F0BA8022689368EF
:1049A0009B0003D59168714B0B4093609368DD00C9
:1049B00015D46F4B90686F491B6801406E489B0986
:1049C00041F08051A0FB030391609B090193019B7F
:1049D0002BB1019B013B0193019B002BF9D1936803
:1049E000D80024D4636D012543F010036365A36DE3
:1049F0002B43A365936813F0040F636D1DD1D90693
:104A00001BD4636D23F4817343F0020363659368E1
:104A1000DB0728D4594B9A4217D003F580739A428A
:104A200013D0574B9B68D9071DD4564A15E093689D
:104A3000002513F0040F636DE1D0636D012543F091
:104A400010032846636503B030BD4C4A4E4B926854
:104A50009B681343D80706D44C4A9368616823F4D3
:104A60007C130B439360FFF767FB41F20303A168DC
:104A70009842237F52D894F815C01A04206B42EA5A
:104A80004C3202430A43012B03D1236A013B42EA21
:104A90004342636A23B103F47873A16A0B431A4358
:104AA00023683B49D86801400A43DA609A6812F0EB
:104AB000040F9A681CD112071AD4D868354A217D90
:104AC000024042EA8132E16A0A43DA6094F838200F
:104AD000012A3AD01A6922F001021A611A692046A5
:104AE000616B22F070420A431A61FFF789FE236866
:104AF000E268012A21D01A6B22F00F021A63636D5B
:104B0000284623F0030343F00103636503B030BD7F
:104B1000FCF7A2FEA56584F850503FE71029AAD102
:104B2000617D1A0442EA4132216B0A4342F01C02C1
:104B3000A9E70125284603B030BD196BA26921F011
:104B40000F01013A0A431A63D9E7D4E91021186921
:104B50000A43114901400A43A16C0A43E16B42EA4E
:104B6000014242F001021A61B8E700BFC0FFFF5FD7
:104B70004C000024C0FFFF6F632D3E050020024063
:104B800000600258006302580021024000230240E6
:104B900003C0F0FFFCBFFFFF1EF800FCF0B50023D0
:104BA00083B0019390F85030012B40D0012304468C
:104BB0000E46154680F85030FFF7EEFDE8B9676DF8
:104BC00005F080421B4B06F480311B4D3B401B4FD0
:104BD00043F00203636523689E68354015430D4327
:104BE00045F000459D609A68002A0FDB636D23F055
:104BF000030343F00103636503E0636D43F01003B7
:104C00006365002384F8503003B0F0BD019A01328F
:104C10000192019ABA42E6D9636D0022012023F085
:104C2000120384F8502043F010036365ECE7022080
:104C300003B0F0BDFDEEFFFFC0FFFE3FFF955A55EC
:104C4000F0B490F850200E68012A49D00346294A52
:104C500001201C6883F85000944208D05A6D00214E
:104C600042F0200283F850105A65F0BC7047224D84
:104C7000AA6852070AD5A2685A6D012042F02002A4
:104C80005A65002283F85020F0BC7047A06810F0ED
:104C90000400F1D1C6B1DFF868C04F68DCF8082025
:104CA00022F440423A43CCF80820A468AA68224380
:104CB000D40713D48A68DCF8081016430F4A0A4058
:104CC0001643CCF80860DCE70D498A6822F44042BC
:104CD0008A60A068AA680243D00704D50020D0E704
:104CE0000220F0BC70478C683046044A22408A603B
:104CF000C7E700BF0020024000210240E0F0FFFFB4
:104D00000023024006494FF6FF0C0002054BCA681B
:104D100000F4E06002EA0C0210430343CB607047EA
:104D200000ED00E00000FA051B4BDB68C3F3022333
:104D300000B5C3F1070E03F1040CBEF1040F28BF48
:104D40004FF0040EBCF1060F1AD9033B4FF0FF3CA5
:104D50000CFA03FC22EA0C024FF0FF3C00280CFA8C
:104D60000EFC21EA0C0101FA03F141EA02010ADB1F
:104D700009010A4BC9B2034483F800135DF804FB30
:104D800000221346E8E700F00F000901044BC9B206
:104D9000034419765DF804FB00ED00E000E100E05B
:104DA000FCEC00E0002807DB00F01F0101234009B4
:104DB000024A8B4042F82030704700BF00E100E01B
:104DC00000280DDB4309012200F01F0005492033B4
:104DD00002FA00F041F82300BFF34F8FBFF36F8F4B
:104DE000704700BF00E100E0431EB3F1807F0CD2AA
:104DF0004FF0E022002006494FF0F00C53610723EA
:104E000081F823C09061136170470120704700BF93
:104E100000ED00E0BFF35F8F044B00215A6A22F4DB
:104E200080325A62C3F89410704700BF00ED00E072
:104E3000064B40F00100C3F894005A6A42F48032F5
:104E40005A62BFF34F8FBFF36F8F704700ED00E0E2
:104E5000174A4378C2F89830017821B3436800B507
:104E6000C2F89C30C37A90F80CC01B0690F80FE093
:104E700043EA0C7390F80AC00B43817B43EACC43AE
:104E800090F80DC043EA8C4390F809C043EA4143CF
:104E9000017A43EA0E4343EA0C2343EA4103C2F892
:104EA000A0305DF804FBC2F89C10C2F8A010704757
:104EB00000ED00E0704700BF08B5FFF7FBFF08BD3D
:104EC00088B110B50379044603F0FF023BB100231B
:104ED00002210122217118462361227110BD427105
:104EE000FCF7B2FDF3E70120704700BFF8B50446B8
:104EF0004079069F012853D00D46114601222668AD
:104F00006271022222713DBBA068042F374ADFF88C
:104F1000E4C0C2633268C0F840C042F48052DFF897
:104F2000D8C0C0F84CC0326042D0082F3DD0002F0E
:104F300038D02A46376847F40057376000F03CFC09
:104F40000023637138BB236805F0100101251A683E
:104F50008D4015431D60F8BDE068042F244ADFF83A
:104F60009CC0C2633268C0F840C042F08052DFF893
:104F700090C0C0F84CC032602FD0082F24D0D7B1D9
:104F80003768002247F00057376000F015FC002317
:104F900063710028D7D0236943F004032361F8BD6F
:104FA0000220F8BD06F10802C4E706F11002C1E7CD
:104FB00006F10C02BEE7376806F1140247F000570D
:104FC000376000F0F9FBE2E7376806F11C0247F0B2
:104FD0000057376000F0F0FBD9E7376806F1180298
:104FE00047F00057376000F0E7FBD0E7615000085A
:104FF0003D52000871500008815000084D520008D1
:105000005952000838B54FF4805C036801F0100E67
:1050100004461D6801200CFA0EFC00FA0EF025EA89
:105020000C051D601A6822EA00021A6071B9A068B6
:1050300000F0E2FC2268136823F40053136010B1FF
:105040000423237138BD0123237138BDE06800F0CB
:10505000D3FC2268136823F000531360EFE700BF0E
:1050600010B5846B2046FCF7B7FD0123237110BDFA
:10507000806B08B5FCF7E0FD08BD00BF704700BFBE
:1050800010B5846B2369204643F004032361FFF7C6
:10509000F5FF0123237110BD704700BF03681A6834
:1050A000910410B5044602D55A6B920418D41A68BC
:1050B000910002D55A6B920000D410BD04224FF02B
:1050C000005120462271226942F002022261596396
:1050D0001A6822F08052BDE810401A6000F0ACB8A7
:1050E00004224FF400510271026942F00102026190
:1050F00059631A6822F480521A60FFF7CDFF2368C3
:10510000D5E700BF2DE9F04143790E460968012B30
:1051100000F08A80012304290446154643714FF0AC
:10512000020303713AD002F0100023683269012AA9
:105130002AD0D6E902252A4307250A43716805FAD1
:1051400000F6DD6B8240814025EA06052A434FF4D4
:105150008045DA6385401A6822EA050240F6FE754A
:105160001A6085401A6822EA050201251143C0220F
:10517000196082401868002120EA02001860084681
:1051800025716171BDE8F0811F259A6B854022EA87
:105190000505726982402A439A63CAE7D2B9FEF7CD
:1051A000B3FFDFF88C80074604E0FEF7ADFFC01BBD
:1051B000012830D823685B6B13EA080FF5D1012072
:1051C000FEF7A8FF2368B2691A640DE0FEF79CFFA2
:1051D000012820D823685B6B002BF7DB0120FEF74A
:1051E00099FF2368B2695A6405F0100040F2FF315C
:1051F0009A6C814022EA0102F16981400A43FF2151
:105200009A648140DA6C22EA0102316A81400A43E1
:105210003168DA648AE72369032243F00803104601
:1052200023612271BDE8F0810220BDE8F08100BF5A
:1052300000800020704700BF704700BF10B5846B2E
:105240002046FCF739FD0123237110BD806B08B5A2
:10525000FCF71CFD08BD00BF10B5846B2369204618
:1052600043F004032361FFF7E5FF0123237110BD21
:105270000268344B344930B4344D354CAA4218BF1F
:105280009A420CBF012300238A4208BF43F0010366
:105290003031A24208BF43F0010330348A4208BFD4
:1052A00043F001033031A24208BF43F00103303420
:1052B0008A4208BF43F0010301F55C71A24208BFB6
:1052C00043F0010304F55C748A4208BF43F0010314
:1052D0003031A24208BF43F0010330348A4208BF94
:1052E00043F001033031A24208BF43F001033034E0
:1052F0008A4208BF43F001033031A24208BF43F0A5
:1053000001038A4208BF43F0010313B9114B9A42CB
:1053100013D1D3B21049114C103BA1FB03515F2BA9
:105320000F4BC1F3021103EA0203615C88BF04332F
:10533000C1658365184630BC704722F0FF03836562
:10534000F8E700BF10000240400002402800024081
:1053500058000240B8040240ABAAAAAA202D0108B6
:1053600000FCFFFF0368294A294930B4294D2A4C23
:10537000AB4218BF93420CBF012200228B4208BFF0
:1053800042F001022831A34208BF42F00102283452
:105390008B4208BF42F001022831A34208BF42F00D
:1053A00001028B4208BF42F0010212B91B4A93422C
:1053B00013D1DBB21A4C1B4A0121083B1A4DA4FB46
:1053C0000343456602EB1312C3F30413920001FA80
:1053D00003F30266836630BC7047DAB21349144C9B
:1053E0001944103AA829A4FB02234FEA131300D84A
:1053F0000833104A03F01F0501210F4C1A44A9403D
:105400004466920081660266E5E700BF08540258D0
:10541000305402581C5402584454025894540258B0
:10542000CDCCCCCC0096001680580258F0FBFDBFC6
:10543000ABAAAAAA008200108008024070B50446F8
:10544000FEF762FE002C00F0C68023680546954AF0
:10545000934248D01832934245D0303292498B4221
:1054600018BF934201F130010CBF012200228B4290
:1054700008BF42F0010218318B4208BF42F001021E
:1054800018318B4208BF42F0010218318B4208BF2D
:1054900042F0010201F556718B4208BF42F0010251
:1054A00018318B4208BF42F0010218318B4208BF0D
:1054B00042F0010218318B4208BF42F0010218315C
:1054C0008B4208BF42F0010218318B4208BF42F004
:1054D000010218318B4208BF42F001021AB9734A27
:1054E000934240F0F5800222002184F8352084F8B0
:1054F00034101A6822F001021A6005E0FEF704FE7B
:10550000431B052B40D823681A68D107F6D4D4E989
:10551000022521692A43A0691D680A4361690A437B
:10552000E16902430A4362492940256A2A430A4342
:10553000616A04292FD01A605A6922F007021143C8
:1055400059612046FFF794FEE26D3F2302F01F02EF
:10555000934083602046FFF705FFA368802B3CD073
:105560006368A06EDAB2013BD4E91851072B2A60B8
:10557000486026D90023C4E91B3363670020012358
:10558000606584F8353070BD2022032301206265F8
:1055900084F8353070BDD4E90B5129430A431A60B1
:1055A0005969A26A21F00701114341F00401002D5D
:1055B000C6D000284FD1012A6ED032F00202BFD1EE
:1055C00051E0501E072810D9626FD4E91B3100202A
:1055D00018604A60D2E7012070BD0023A16ED4E9B3
:1055E0001802636003605160C4E72168314B324D9B
:1055F000A94218BF994205F114050CBF01230023ED
:10560000A94208BF43F001031435A94208BF43F083
:1056100001031435A94208BF43F001031435A94220
:1056200008BF43F001031435A94208BF43F001034A
:105630003BB9224B994204D0214B224913449B0091
:1056400003E0214B214913449B0001228240C4E91D
:105650001B316267BBE7B0F5005F0ED0022A05D9A7
:10566000032A7FF46DAFEA017FF56AAF0123402280
:105670001846626584F8353070BD032A3FF660AF86
:1056800001A050F822F000BF6D56000867560008D0
:105690006D56000899560008B5F1C07F7FF450AFF1
:1056A000E4E700BF1000024040000240B80402409E
:1056B0003F8010FE085402581C540258945402585B
:1056C0003F820010400902403F96001640590258A0
:1056D000324A33483349834218BF934200F12800CD
:1056E0000CBF012200228B4208BF42F00102283188
:1056F000834208BF42F0010228308B4208BF42F0CB
:1057000001022831834208BF42F001028B4208BFE8
:1057100042F0010212B9244A934238D102220021F8
:10572000224D84F8341084F835201A681540A26898
:10573000402A2AD0802A0CBF4FF480400846266AAF
:10574000D4E90312D20842EAD102616942EAD102E5
:10575000A16942EAD102E16942EAD102144942EA6E
:10576000161219442A4302431248A0FB01012046A5
:105770001A600B099B00E365FFF77AFDE26D0123D8
:1057800002F01F0293404360E4E61020D7E7402276
:1057900003230120626584F8353070BD0854025837
:1057A0001C54025830540258945402580F00FEFF03
:1057B000F8ABFDA7CDCCCCCC002800F0BC80844653
:1057C00090F83400012800F0B88001202DE9F04164
:1057D0009CF835408CF83400844208D000224FF405
:1057E00000638CF83420CCF85430BDE8F0810220FE
:1057F000DCF800507A4C8CF835000020794ECCF85B
:1058000054007948854218BFA54200F118000CBF2A
:1058100001240024854208BF44F001041830854269
:1058200008BF44F001041830854208BF44F0010469
:105830001830854208BF44F0010400F556708542D7
:1058400008BF44F001041830854208BF44F0010449
:105850001830854208BF44F001041830854208BF63
:1058600044F001041830854208BF44F001041830A8
:10587000854208BF44F001041830854208BF44F057
:1058800001041830854208BF44F00104A0F595607A
:10589000B54218BF8542DCF86C600CBF01200020C7
:1058A00054EA0008286820F001002860DCF8640051
:1058B000DCF86840DCF85870446040D016B1DCE990
:1058C0001C044460DCF85C004FF03F0E00F01F0049
:1058D0000EFA00F0B860286820F4802028606B6021
:1058E000DCF80830402B23D0A960EA602B6823F055
:1058F0001E0343F016032B60DCF840301BB12B680D
:1059000043F008032B60DCF860301A68D20303D53B
:105910001A6842F480721A601EB1336843F48073CF
:1059200033602B68002043F001032B60BDE8F08159
:10593000AA60E960DAE7012070470220704716B1DB
:10594000DCE91C0444602948DFF8A8E0754518BF6D
:1059500085420EF1140E0CBF01200020754508BFD2
:1059600040F001000EF1140E754508BF40F0010033
:105970000EF1140E754508BF40F001000EF1140E33
:10598000754508BF40F001000EF1140E754508BFC3
:1059900040F0010010B9164885420ED1DCF85C00D9
:1059A00000F01F0E012000FA0EF078606B60DCF84A
:1059B0000830402B10D0A960EA602B6823F00E035A
:1059C00043F00A032B60DCF84030002B9BD02B689F
:1059D00043F004032B6096E7AA60E960EDE700BF9F
:1059E000400002402800024058000240085402587B
:1059F000945402581C54025870B50546FEF784FBB7
:105A0000002D00F0ED8095F83530022B40F0D78066
:105A10002C6806467A4B7B4A944218BF9C4202F19E
:105A200018020CBF01230023944208BF43F0010376
:105A30001832944208BF43F001031832944208BF61
:105A400043F001031832944208BF43F0010302F50A
:105A50005672944208BF43F001031832944208BFC3
:105A600043F001031832944208BF43F00103183297
:105A7000944208BF43F001031832944208BF43F038
:105A800001031832944208BF43F0010318329442D4
:105A900008BF43F001031832944208BF43F00103EA
:105AA0003BB9A2F59562584B9C4218BF944240F016
:105AB000A18023682A6E23F01E032360636923F00C
:105AC00080036361136823F480731360236823F0F9
:105AD0000103236004E0FEF717FB831B052B75D839
